:020000040000FA
:1000000002EF00F068EC00F0006A016A808883A0CB
:1000100007EF00F083B00AEF00F080988BEC00F05F
:1000200082AE10EF00F0FF0E006218EF00F0012A20
:10003000002A82BE13EF00F00050086E0150076ED8
:10004000066A056AE80E0C6E030E0B6E0A6A096AF0
:10005000C0EC00F01050086E0F50076E0E50066E88
:100060000D50056E106A0F6A0E6A0D6AB90E0C6E9D
:100070001C0E0B6E000E0A6E000E096E12EC01F0E3
:10008000818E81908192819481968198819A819CC0
:1000900083A248EF00F083B24BEF00F00EC081FF67
:1000A00083A450EF00F083B453EF00F00FC081FF42
:1000B00083A658EF00F083B65BEF00F010C081FF1D
:1000C000106A0F6A0E6A0D6A006A016A07EF00F093
:1000D000806A816A826A836A006A016A020E926E8D
:1000E000000E936E800E946E0F0E956E0F0EC16E05
:1000F000800E9B6E6F0ED36EA40ECD6E3C0ECF6E37
:10010000B00ECE6E010E9D6E010E9E6EC00EF26E92
:100110006D6A6F6A1200828C00000000000000000F
:1001200000000000000000000000000000000000CF
:1001300000000000000000000000000000000000BF
:1001400000000000000000000000000000000000AF
:10015000000000000000000000000000000000009F
:10016000000000000000000000000000000000008F
:10017000000000000000000000000000829C12004F
:1001800005C01DF006C01EF007C01FF008C020F01B
:1001900009C021F00AC022F00BC023F00CC024F0EB
:1001A00005C00DF006C00EF007C00FF008C010F03B
:1001B00021C005F022C006F023C007F024C008F0DB
:1001C000096A0A6A0B6A010E0C6E43EC01F005C065
:1001D00021F006C022F007C023F008C024F0000E72
:1001E0002162FDEF00F02262FDEF00F02362FDEFDF
:1001F00000F02462FDEF00F012000DC005F00EC00B
:1002000006F00FC007F010C008F01DC009F01EC0B6
:100210000AF01FC00BF020C00CF036EC01F0D8EF54
:1002200000F012000D6A0E6A0F6A106A116A126AF3
:10023000136A146A43EC01F0D8A821EF01F0D8A0AA
:10024000120052EC01F0010E086E076A066A056A98
:1002500010C00CF00FC00BF00EC00AF00DC009F07A
:1002600036EC01F063EC01F01AEF01F008500C24B9
:10027000106E07500B200F6E06500A200E6E0550B0
:1002800009200D6E12000C50085E0B50D8A00B3CDC
:10029000075E0A50D8A00A3C065E0950D8A0093C67
:1002A000055E120005C015F006C016F007C017F075
:1002B00008C018F009C019F00AC01AF00BC01BF0F2
:1002C0000CC01CF0120015C005F016C006F017C0D7
:1002D00007F018C008F019C009F01AC00AF01BC0D6
:0802E0000BF01CC00CF0120031
:020000040030CA
:0100000000FF
:010001000AF4
:0100020019E4
:010003001EDE
:01000500807A
:010006008079
:010008000FE8
:01000900C036
:01000A000FE6
:01000B00E014
:01000C000FE4
:01000D0040B2
:00000001FF
